:100000000C942A000C94B0030C943C000C943C001B
:100010000C943C000C943C000C943C000C943C0070
:100020000C943C000C943C000C943C000C943C0060
:100030000C943C000C943C000C943C000C943C0050
:100040000C943C000C943C000C943C000C943C0040
:100050000C943C0011241FBECFE5D8E0DEBFCDBF1D
:1000600020E0A0E6B0E001C01D92A236B207E1F7A1
:100070000E94AB030C94C1030C940000109260002A
:1000800060E081E40E9431021092610089C082E444
:100090009FE00E94980380916000813009F07BC04E
:1000A00062E082E40E9431028BE49CE40E949803A7
:1000B00060E081E40E94350262E082E40E94350241
:1000C0001092610011C061E081E40E94390261E098
:1000D00082E40E94390282E49FE00E9498038091AA
:1000E00061008F5F8093610080916100853058F3DB
:1000F00061E081E40E94350261E082E40E94350201
:1001000062E081E40E94310260E082E40E943102F8
:100110008BE49CE40E94980362E081E40E94350233
:100120001092610011C061E081E40E94390261E037
:1001300082E40E94390282E49FE00E949803809149
:1001400061008F5F8093610080916100853058F37A
:1001500061E082E40E94350261E081E40E943502A0
:1001600060E082E40E94350262E081E40E94350290
:1001700062E082E40E94310260E081E40E94310288
:100180008BE49CE40E94980362E082E40E943502C2
:10019000109260000AC0809161008F5F80936100BF
:1001A00080916100853008F472CF60E081E40E94A4
:1001B000350208951092600062E081E40E943102ED
:1001C0001092610056C082E49FE00E9498038091E3
:1001D0006000813009F048C060E082E40E94310292
:1001E0008BE49CE40E94980362E081E40E94350263
:1001F0001092610011C061E081E40E94390261E067
:1002000082E40E94390282E49FE00E949803809178
:1002100061008F5F8093610080916100853058F3A9
:1002200061E081E40E94350261E082E40E943502CF
:1002300060E082E40E94350262E082E40E943102C2
:1002400060E081E40E9431028BE49CE40E94980308
:1002500062E082E40E94350260E081E40E9435029F
:100260001092600081E00895809161008F5F80931B
:10027000610080916100853008F4A5CF62E081E4DF
:100280000E94350280E00895109260001092610093
:10029000A2C061E081E40E94390282E49FE00E94F2
:1002A000980380916000813009F090C062E082E4A0
:1002B0000E943102109261000DC061E081E40E9451
:1002C000390282E49FE00E949803809161008F5F71
:1002D0008093610080916100853078F361E081E472
:1002E0000E94350262E082E40E94350210926100B1
:1002F00011C061E081E40E94390261E082E40E9461
:10030000390282E49FE00E949803809161008F5F30
:100310008093610080916100853058F361E081E451
:100320000E94350261E082E40E94350262E081E4CD
:100330000E94310260E082E40E9431028BE49CE47E
:100340000E94980362E081E40E94350210926100ED
:1003500011C061E081E40E94390261E082E40E9400
:10036000390282E49FE00E949803809161008F5FD0
:100370008093610080916100853058F361E082E4F0
:100380000E94350261E081E40E94350260E082E46F
:100390000E94350262E081E40E94350262E082E45C
:1003A0000E94310260E081E40E9431028BE49CE40F
:1003B0000E94980360E081E40E94350262E082E4DA
:1003C0000E9435021092600081E0089580916100E2
:1003D0008F5F8093610080916100853008F459CF70
:1003E00061E081E40E94350280E0089560E081E4EC
:1003F0000E942D0261E081E40E942D0262E081E40E
:100400000E942D0260E082E40E942D0261E082E4FD
:100410000E942D0262E082E40E942D02789481E025
:1004200090E00E9463030E94950383E00E9477039B
:10043000109260000E943E0002C00E9444010E948F
:1004400044018111FACF02C00E9444010E94DA00E7
:100450008111FACF0E944401EDCF41E00E943C029D
:10046000089541E00E94B402089540E00E94B40261
:1004700008950E942C030895823429F118F48134E0
:1004800039F008958334D1F1843409F452C00895C9
:10049000413059F42AB381E090E002C0880F991FDF
:1004A0006A95E2F7822B8ABB089541115CC02AB39A
:1004B00081E090E002C0880F991F6A95E2F780956D
:1004C00082238ABB0895413059F427B381E090E03C
:1004D00002C0880F991F6A95E2F7822B87BB0895A7
:1004E000411141C027B381E090E002C0880F991FFD
:1004F0006A95E2F78095822387BB0895413059F4CD
:1005000024B381E090E002C0880F991F6A95E2F75A
:10051000822B84BB0895411126C024B381E090E072
:1005200002C0880F991F6A95E2F78095822384BBE9
:100530000895413059F421B381E090E002C0880F62
:10054000991F6A95E2F7822B81BB089541110BC078
:1005500021B381E090E002C0880F991F6A95E2F70D
:100560008095822381BB0895823429F118F4813467
:1005700039F008958334D1F1843409F452C00895D8
:10058000413059F42BB381E090E002C0880F991FED
:100590006A95E2F7822B8BBB089541115CC02BB3A7
:1005A00081E090E002C0880F991F6A95E2F780957C
:1005B00082238BBB0895413059F428B381E090E049
:1005C00002C0880F991F6A95E2F7822B88BB0895B5
:1005D000411141C028B381E090E002C0880F991F0B
:1005E0006A95E2F78095822388BB0895413059F4DB
:1005F00025B381E090E002C0880F991F6A95E2F769
:10060000822B85BB0895411126C025B381E090E07F
:1006100002C0880F991F6A95E2F78095822385BBF7
:100620000895413059F422B381E090E002C0880F70
:10063000991F6A95E2F7822B82BB089541110BC086
:1006400022B381E090E002C0880F991F6A95E2F71B
:100650008095822382BB08958234A1F018F48134FE
:1006600031F008958334C9F0843411F108952BB327
:1006700081E090E002C0880F991F6A95E2F7822717
:100680008BBB089528B381E090E002C0880F991FCA
:100690006A95E2F7822788BB089525B381E090E050
:1006A00002C0880F991F6A95E2F7822785BB0895DB
:1006B00022B381E090E002C0880F991F6A95E2F7AB
:1006C000822782BB08958230910549F083309105DD
:1006D00051F0019759F48BB780648BBF08958BB7A5
:1006E00080688BBF08958BB780628BBF089581307F
:1006F00051F028F08230A9F0833061F0089585B779
:100700008C7F85BF089585B7816085BF85B78D7F54
:1007100085BF089585B7826085BF85B78E7F85BF09
:10072000089585B7836085BF089513BE12BE0895EE
:10073000AC0183B7816083BF20E030E008C008B619
:1007400000FEFDCF98B7916098BF2F5F3F4F2417F1
:100750003507A8F308950E94F60180E090E008951F
:100760001F920F920FB60F9211248F938091600009
:100770008160809360008F910F900FBE0F901F904B
:060780001895F894FFCF6C
:00000001FF
